{
	"_format": "hh-sol-artifact-1",
	"contractName": "StakingContract",
	"sourceName": "contracts/StakingContract.sol",
	"abi": [
		{
			"inputs": [],
			"stateMutability": "nonpayable",
			"type": "constructor"
		},
		{
			"anonymous": false,
			"inputs": [
				{
					"indexed": true,
					"internalType": "address",
					"name": "owner",
					"type": "address"
				},
				{
					"indexed": true,
					"internalType": "address",
					"name": "spender",
					"type": "address"
				},
				{
					"indexed": false,
					"internalType": "uint256",
					"name": "value",
					"type": "uint256"
				}
			],
			"name": "Approval",
			"type": "event"
		},
		{
			"anonymous": false,
			"inputs": [
				{
					"indexed": true,
					"internalType": "address",
					"name": "from",
					"type": "address"
				},
				{
					"indexed": true,
					"internalType": "address",
					"name": "to",
					"type": "address"
				},
				{
					"indexed": false,
					"internalType": "uint256",
					"name": "value",
					"type": "uint256"
				}
			],
			"name": "Transfer",
			"type": "event"
		},
		{
			"inputs": [
				{
					"internalType": "address",
					"name": "",
					"type": "address"
				},
				{
					"internalType": "address",
					"name": "",
					"type": "address"
				}
			],
			"name": "allowance",
			"outputs": [
				{
					"internalType": "uint256",
					"name": "",
					"type": "uint256"
				}
			],
			"stateMutability": "view",
			"type": "function"
		},
		{
			"inputs": [
				{
					"internalType": "address",
					"name": "spender",
					"type": "address"
				},
				{
					"internalType": "uint256",
					"name": "value",
					"type": "uint256"
				}
			],
			"name": "approve",
			"outputs": [
				{
					"internalType": "bool",
					"name": "",
					"type": "bool"
				}
			],
			"stateMutability": "nonpayable",
			"type": "function"
		},
		{
			"inputs": [
				{
					"internalType": "address",
					"name": "addr",
					"type": "address"
				}
			],
			"name": "balance",
			"outputs": [
				{
					"internalType": "uint256",
					"name": "",
					"type": "uint256"
				}
			],
			"stateMutability": "view",
			"type": "function"
		},
		{
			"inputs": [
				{
					"internalType": "address",
					"name": "",
					"type": "address"
				}
			],
			"name": "balanceOf",
			"outputs": [
				{
					"internalType": "uint256",
					"name": "",
					"type": "uint256"
				}
			],
			"stateMutability": "view",
			"type": "function"
		},
		{
			"inputs": [],
			"name": "blockNumber",
			"outputs": [
				{
					"internalType": "uint256",
					"name": "",
					"type": "uint256"
				}
			],
			"stateMutability": "view",
			"type": "function"
		},
		{
			"inputs": [],
			"name": "blocksPerReward",
			"outputs": [
				{
					"internalType": "uint256",
					"name": "",
					"type": "uint256"
				}
			],
			"stateMutability": "view",
			"type": "function"
		},
		{
			"inputs": [
				{
					"internalType": "uint256",
					"name": "amount",
					"type": "uint256"
				},
				{
					"internalType": "uint256",
					"name": "period",
					"type": "uint256"
				}
			],
			"name": "calculateAPY",
			"outputs": [
				{
					"internalType": "uint256",
					"name": "",
					"type": "uint256"
				}
			],
			"stateMutability": "view",
			"type": "function"
		},
		{
			"inputs": [
				{
					"internalType": "address",
					"name": "addr",
					"type": "address"
				}
			],
			"name": "calculateRewards",
			"outputs": [
				{
					"internalType": "uint256",
					"name": "",
					"type": "uint256"
				}
			],
			"stateMutability": "view",
			"type": "function"
		},
		{
			"inputs": [],
			"name": "claimRewards",
			"outputs": [],
			"stateMutability": "nonpayable",
			"type": "function"
		},
		{
			"inputs": [],
			"name": "compoundInterestRate",
			"outputs": [
				{
					"internalType": "uint256",
					"name": "",
					"type": "uint256"
				}
			],
			"stateMutability": "view",
			"type": "function"
		},
		{
			"inputs": [],
			"name": "decimals",
			"outputs": [
				{
					"internalType": "uint8",
					"name": "",
					"type": "uint8"
				}
			],
			"stateMutability": "view",
			"type": "function"
		},
		{
			"inputs": [],
			"name": "firstBlock",
			"outputs": [
				{
					"internalType": "uint256",
					"name": "",
					"type": "uint256"
				}
			],
			"stateMutability": "view",
			"type": "function"
		},
		{
			"inputs": [],
			"name": "name",
			"outputs": [
				{
					"internalType": "string",
					"name": "",
					"type": "string"
				}
			],
			"stateMutability": "view",
			"type": "function"
		},
		{
			"inputs": [
				{
					"internalType": "uint256",
					"name": "_amount",
					"type": "uint256"
				}
			],
			"name": "stakeTokens",
			"outputs": [],
			"stateMutability": "nonpayable",
			"type": "function"
		},
		{
			"inputs": [
				{
					"internalType": "address",
					"name": "",
					"type": "address"
				}
			],
			"name": "stakers",
			"outputs": [
				{
					"internalType": "uint256",
					"name": "stakedBalance",
					"type": "uint256"
				},
				{
					"internalType": "uint256",
					"name": "lastBlockStaked",
					"type": "uint256"
				},
				{
					"internalType": "uint256",
					"name": "cumulativeRewards",
					"type": "uint256"
				}
			],
			"stateMutability": "view",
			"type": "function"
		},
		{
			"inputs": [],
			"name": "symbol",
			"outputs": [
				{
					"internalType": "string",
					"name": "",
					"type": "string"
				}
			],
			"stateMutability": "view",
			"type": "function"
		},
		{
			"inputs": [],
			"name": "totalSupply",
			"outputs": [
				{
					"internalType": "uint256",
					"name": "",
					"type": "uint256"
				}
			],
			"stateMutability": "view",
			"type": "function"
		},
		{
			"inputs": [
				{
					"internalType": "address",
					"name": "to",
					"type": "address"
				},
				{
					"internalType": "uint256",
					"name": "value",
					"type": "uint256"
				}
			],
			"name": "transfer",
			"outputs": [
				{
					"internalType": "bool",
					"name": "",
					"type": "bool"
				}
			],
			"stateMutability": "nonpayable",
			"type": "function"
		},
		{
			"inputs": [
				{
					"internalType": "address",
					"name": "from",
					"type": "address"
				},
				{
					"internalType": "address",
					"name": "to",
					"type": "address"
				},
				{
					"internalType": "uint256",
					"name": "value",
					"type": "uint256"
				}
			],
			"name": "transferFrom",
			"outputs": [
				{
					"internalType": "bool",
					"name": "",
					"type": "bool"
				}
			],
			"stateMutability": "nonpayable",
			"type": "function"
		},
		{
			"inputs": [
				{
					"internalType": "address",
					"name": "addr",
					"type": "address"
				}
			],
			"name": "viewStakeDetails",
			"outputs": [
				{
					"components": [
						{
							"internalType": "uint256",
							"name": "stakedBalance",
							"type": "uint256"
						},
						{
							"internalType": "uint256",
							"name": "lastBlockStaked",
							"type": "uint256"
						},
						{
							"internalType": "uint256",
							"name": "cumulativeRewards",
							"type": "uint256"
						}
					],
					"internalType": "struct StakingContract.Staker",
					"name": "",
					"type": "tuple"
				}
			],
			"stateMutability": "view",
			"type": "function"
		},
		{
			"inputs": [],
			"name": "withdrawStake",
			"outputs": [],
			"stateMutability": "nonpayable",
			"type": "function"
		}
	],
	"bytecode": "0x60806040526040518060400160405280600d81526020017f5374616b696e6720546f6b656e0000000000000000000000000000000000000081525060009080519060200190620000519291906200015c565b506040518060400160405280600381526020017f5354540000000000000000000000000000000000000000000000000000000000815250600190805190602001906200009f9291906200015c565b506008600260006101000a81548160ff021916908360ff160217905550600260009054906101000a900460ff1660ff16600a620000dd919062000267565b631dcd6500620000ee9190620003a4565b6003556002600755600a6008553480156200010857600080fd5b50600354600460003373ffffffffffffffffffffffffffffffffffffffff1673ffffffffffffffffffffffffffffffffffffffff1681526020019081526020016000208190555042600981905550620004b0565b8280546200016a906200040f565b90600052602060002090601f0160209004810192826200018e5760008555620001da565b82601f10620001a957805160ff1916838001178555620001da565b82800160010185558215620001da579182015b82811115620001d9578251825591602001919060010190620001bc565b5b509050620001e99190620001ed565b5090565b5b8082111562000208576000816000905550600101620001ee565b5090565b6000808291508390505b60018511156200025e5780860481111562000236576200023562000445565b5b6001851615620002465780820291505b80810290506200025685620004a3565b945062000216565b94509492505050565b6000620002748262000405565b9150620002818362000405565b9250620002b07fffffffffffffffffffffffffffffffffffffffffffffffffffffffffffffffff8484620002b8565b905092915050565b600082620002ca57600190506200039d565b81620002da57600090506200039d565b8160018114620002f35760028114620002fe5762000334565b60019150506200039d565b60ff84111562000313576200031262000445565b5b8360020a9150848211156200032d576200032c62000445565b5b506200039d565b5060208310610133831016604e8410600b84101617156200036e5782820a90508381111562000368576200036762000445565b5b6200039d565b6200037d84848460016200020c565b9250905081840481111562000397576200039662000445565b5b81810290505b9392505050565b6000620003b18262000405565b9150620003be8362000405565b9250817fffffffffffffffffffffffffffffffffffffffffffffffffffffffffffffffff0483118215151615620003fa57620003f962000445565b5b828202905092915050565b6000819050919050565b600060028204905060018216806200042857607f821691505b602082108114156200043f576200043e62000474565b5b50919050565b7f4e487b7100000000000000000000000000000000000000000000000000000000600052601160045260246000fd5b7f4e487b7100000000000000000000000000000000000000000000000000000000600052602260045260246000fd5b60008160011c9050919050565b611d6480620004c06000396000f3fe608060405234801561001057600080fd5b50600436106101375760003560e01c806370a08231116100b8578063a9059cbb1161007c578063a9059cbb14610344578063b687e6f814610374578063b873995a146103a4578063bed9d861146103d4578063dd62ed3e146103de578063e3d670d71461040e57610137565b806370a082311461028a5780637547c7a3146102ba5780639168ae72146102d657806395d89b41146103085780639d3e86cd1461032657610137565b806323b872dd116100ff57806323b872dd146101e4578063313ce56714610214578063372500ab1461023257806357e871e71461023c57806364ab86751461025a57610137565b806306fdde031461013c578063095ea7b31461015a5780630bbb74f01461018a57806318160ddd146101a8578063231b0268146101c6575b600080fd5b61014461043e565b60405161015191906118a4565b60405180910390f35b610174600480360381019061016f9190611571565b6104cc565b6040516101819190611889565b60405180910390f35b6101926105be565b60405161019f91906119c1565b60405180910390f35b6101b06105c4565b6040516101bd91906119c1565b60405180910390f35b6101ce6105ca565b6040516101db91906119c1565b60405180910390f35b6101fe60048036038101906101f99190611522565b6105d0565b60405161020b9190611889565b60405180910390f35b61021c6109a1565b6040516102299190611a13565b60405180910390f35b61023a6109b4565b005b610244610a7e565b60405161025191906119c1565b60405180910390f35b610274600480360381019061026f91906114bd565b610a86565b60405161028191906119c1565b60405180910390f35b6102a4600480360381019061029f91906114bd565b610c25565b6040516102b191906119c1565b60405180910390f35b6102d460048036038101906102cf91906115ad565b610c3d565b005b6102f060048036038101906102eb91906114bd565b610ec4565b6040516102ff939291906119dc565b60405180910390f35b610310610eee565b60405161031d91906118a4565b60405180910390f35b61032e610f7c565b60405161033b91906119c1565b60405180910390f35b61035e60048036038101906103599190611571565b610f82565b60405161036b9190611889565b60405180910390f35b61038e600480360381019061038991906114bd565b611190565b60405161039b91906119a6565b60405180910390f35b6103be60048036038101906103b991906115d6565b611207565b6040516103cb91906119c1565b60405180910390f35b6103dc6112a9565b005b6103f860048036038101906103f391906114e6565b611404565b60405161040591906119c1565b60405180910390f35b610428600480360381019061042391906114bd565b611429565b60405161043591906119c1565b60405180910390f35b6000805461044b90611be7565b80601f016020809104026020016040519081016040528092919081815260200182805461047790611be7565b80156104c45780601f10610499576101008083540402835291602001916104c4565b820191906000526020600020905b8154815290600101906020018083116104a757829003601f168201915b505050505081565b600081600560003073ffffffffffffffffffffffffffffffffffffffff1673ffffffffffffffffffffffffffffffffffffffff16815260200190815260200160002060008573ffffffffffffffffffffffffffffffffffffffff1673ffffffffffffffffffffffffffffffffffffffff168152602001908152602001600020819055508273ffffffffffffffffffffffffffffffffffffffff163373ffffffffffffffffffffffffffffffffffffffff167f8c5be1e5ebec7d5bd14f71427d1e84f3dd0314c0f7b2291e5b200ac8c7c3b925846040516105ac91906119c1565b60405180910390a36001905092915050565b60075481565b60035481565b60095481565b60008073ffffffffffffffffffffffffffffffffffffffff168473ffffffffffffffffffffffffffffffffffffffff161415610641576040517f08c379a000000000000000000000000000000000000000000000000000000000815260040161063890611946565b60405180910390fd5b600073ffffffffffffffffffffffffffffffffffffffff168373ffffffffffffffffffffffffffffffffffffffff1614156106b1576040517f08c379a00000000000000000000000000000000000000000000000000000000081526004016106a890611986565b60405180910390fd5b600460008573ffffffffffffffffffffffffffffffffffffffff1673ffffffffffffffffffffffffffffffffffffffff16815260200190815260200160002054821115610733576040517f08c379a000000000000000000000000000000000000000000000000000000000815260040161072a90611926565b60405180910390fd5b600560008573ffffffffffffffffffffffffffffffffffffffff1673ffffffffffffffffffffffffffffffffffffffff16815260200190815260200160002060008473ffffffffffffffffffffffffffffffffffffffff1673ffffffffffffffffffffffffffffffffffffffff168152602001908152602001600020548211156107f2576040517f08c379a00000000000000000000000000000000000000000000000000000000081526004016107e9906118c6565b60405180910390fd5b81600460008673ffffffffffffffffffffffffffffffffffffffff1673ffffffffffffffffffffffffffffffffffffffff16815260200190815260200160002060008282546108419190611b2b565b9250508190555081600460008573ffffffffffffffffffffffffffffffffffffffff1673ffffffffffffffffffffffffffffffffffffffff16815260200190815260200160002060008282546108979190611a4a565b9250508190555081600560008673ffffffffffffffffffffffffffffffffffffffff1673ffffffffffffffffffffffffffffffffffffffff16815260200190815260200160002060003373ffffffffffffffffffffffffffffffffffffffff1673ffffffffffffffffffffffffffffffffffffffff168152602001908152602001600020600082825461092a9190611b2b565b925050819055508273ffffffffffffffffffffffffffffffffffffffff168473ffffffffffffffffffffffffffffffffffffffff167fddf252ad1be2c89b69c2b068fc378daa952ba7f163c4a11628f55a4df523b3ef8460405161098e91906119c1565b60405180910390a3600190509392505050565b600260009054906101000a900460ff1681565b6000600660003373ffffffffffffffffffffffffffffffffffffffff1673ffffffffffffffffffffffffffffffffffffffff16815260200190815260200160002090506000610a0233610a86565b9050808260020154610a149190611a4a565b8260020181905550610a2633826104cc565b50610a323033836105d0565b610a71576040517f08c379a0000000000000000000000000000000000000000000000000000000008152600401610a6890611966565b60405180910390fd5b4382600101819055505050565b600043905090565b600080600660008473ffffffffffffffffffffffffffffffffffffffff1673ffffffffffffffffffffffffffffffffffffffff168152602001908152602001600020600001541415610adb5760009050610c20565b6000600660008473ffffffffffffffffffffffffffffffffffffffff1673ffffffffffffffffffffffffffffffffffffffff1681526020019081526020016000206001015443610b2b9190611b2b565b9050600060085482610b3d9190611aa0565b90506000600660008673ffffffffffffffffffffffffffffffffffffffff1673ffffffffffffffffffffffffffffffffffffffff16815260200190815260200160002060000154905060005b82811015610bcb57606460075483610ba19190611ad1565b610bab9190611aa0565b82610bb69190611a4a565b91508080610bc390611c19565b915050610b89565b50600660008673ffffffffffffffffffffffffffffffffffffffff1673ffffffffffffffffffffffffffffffffffffffff1681526020019081526020016000206000015481610c1a9190611b2b565b93505050505b919050565b60046020528060005260406000206000915090505481565b60008111610c80576040517f08c379a0000000000000000000000000000000000000000000000000000000008152600401610c7790611906565b60405180910390fd5b610c8a3082610f82565b610cc9576040517f08c379a0000000000000000000000000000000000000000000000000000000008152600401610cc090611966565b60405180910390fd5b6000600660003373ffffffffffffffffffffffffffffffffffffffff1673ffffffffffffffffffffffffffffffffffffffff168152602001908152602001600020600001541415610d605743600660003373ffffffffffffffffffffffffffffffffffffffff1673ffffffffffffffffffffffffffffffffffffffff16815260200190815260200160002060010181905550610e68565b6000610d6b33610a86565b905080600660003373ffffffffffffffffffffffffffffffffffffffff1673ffffffffffffffffffffffffffffffffffffffff1681526020019081526020016000206000016000828254610dbf9190611a4a565b9250508190555043600660003373ffffffffffffffffffffffffffffffffffffffff1673ffffffffffffffffffffffffffffffffffffffff1681526020019081526020016000206001018190555080600660003373ffffffffffffffffffffffffffffffffffffffff1673ffffffffffffffffffffffffffffffffffffffff1681526020019081526020016000206002016000828254610e5f9190611a4a565b92505081905550505b80600660003373ffffffffffffffffffffffffffffffffffffffff1673ffffffffffffffffffffffffffffffffffffffff1681526020019081526020016000206000016000828254610eba9190611a4a565b9250508190555050565b60066020528060005260406000206000915090508060000154908060010154908060020154905083565b60018054610efb90611be7565b80601f0160208091040260200160405190810160405280929190818152602001828054610f2790611be7565b8015610f745780601f10610f4957610100808354040283529160200191610f74565b820191906000526020600020905b815481529060010190602001808311610f5757829003601f168201915b505050505081565b60085481565b60008073ffffffffffffffffffffffffffffffffffffffff168373ffffffffffffffffffffffffffffffffffffffff161415610ff3576040517f08c379a0000000000000000000000000000000000000000000000000000000008152600401610fea90611986565b60405180910390fd5b600460003373ffffffffffffffffffffffffffffffffffffffff1673ffffffffffffffffffffffffffffffffffffffff16815260200190815260200160002054821115611075576040517f08c379a000000000000000000000000000000000000000000000000000000000815260040161106c90611926565b60405180910390fd5b81600460003373ffffffffffffffffffffffffffffffffffffffff1673ffffffffffffffffffffffffffffffffffffffff16815260200190815260200160002060008282546110c49190611b2b565b9250508190555081600460008573ffffffffffffffffffffffffffffffffffffffff1673ffffffffffffffffffffffffffffffffffffffff168152602001908152602001600020600082825461111a9190611a4a565b925050819055508273ffffffffffffffffffffffffffffffffffffffff163373ffffffffffffffffffffffffffffffffffffffff167fddf252ad1be2c89b69c2b068fc378daa952ba7f163c4a11628f55a4df523b3ef8460405161117e91906119c1565b60405180910390a36001905092915050565b611198611472565b600660008373ffffffffffffffffffffffffffffffffffffffff1673ffffffffffffffffffffffffffffffffffffffff16815260200190815260200160002060405180606001604052908160008201548152602001600182015481526020016002820154815250509050919050565b600080600954426112189190611b2b565b9050600043826112289190611aa0565b9050600081856112389190611aa0565b9050600086905060005b600a8361124f9190611aa0565b811015611290576064600754836112669190611ad1565b6112709190611aa0565b8261127b9190611a4a565b9150808061128890611c19565b915050611242565b50868161129d9190611b2b565b94505050505092915050565b6000600660003373ffffffffffffffffffffffffffffffffffffffff1673ffffffffffffffffffffffffffffffffffffffff16815260200190815260200160002060000154905060008111611333576040517f08c379a000000000000000000000000000000000000000000000000000000000815260040161132a906118e6565b60405180910390fd5b600061133e33610a86565b90506000818361134e9190611a4a565b905061135a33826104cc565b506113663033836105d0565b6113a5576040517f08c379a000000000000000000000000000000000000000000000000000000000815260040161139c90611966565b60405180910390fd5b600660003373ffffffffffffffffffffffffffffffffffffffff1673ffffffffffffffffffffffffffffffffffffffff168152602001908152602001600020600080820160009055600182016000905560028201600090555050505050565b6005602052816000526040600020602052806000526040600020600091509150505481565b6000600460008373ffffffffffffffffffffffffffffffffffffffff1673ffffffffffffffffffffffffffffffffffffffff168152602001908152602001600020549050919050565b60405180606001604052806000815260200160008152602001600081525090565b6000813590506114a281611d00565b92915050565b6000813590506114b781611d17565b92915050565b6000602082840312156114cf57600080fd5b60006114dd84828501611493565b91505092915050565b600080604083850312156114f957600080fd5b600061150785828601611493565b925050602061151885828601611493565b9150509250929050565b60008060006060848603121561153757600080fd5b600061154586828701611493565b935050602061155686828701611493565b9250506040611567868287016114a8565b9150509250925092565b6000806040838503121561158457600080fd5b600061159285828601611493565b92505060206115a3858286016114a8565b9150509250929050565b6000602082840312156115bf57600080fd5b60006115cd848285016114a8565b91505092915050565b600080604083850312156115e957600080fd5b60006115f7858286016114a8565b9250506020611608858286016114a8565b9150509250929050565b61161b81611b71565b82525050565b600061162c82611a2e565b6116368185611a39565b9350611646818560208601611bb4565b61164f81611cef565b840191505092915050565b6000611667601283611a39565b91507f416c6c6f77616e636520657863656564656400000000000000000000000000006000830152602082019050919050565b60006116a7601c83611a39565b91507f4e6f207374616b656420616d6f756e7420746f207769746864726177000000006000830152602082019050919050565b60006116e7601d83611a39565b91507f416d6f756e74206d7573742062652067726561746572207468616e20300000006000830152602082019050919050565b6000611727601483611a39565b91507f496e73756666696369656e742062616c616e63650000000000000000000000006000830152602082019050919050565b6000611767600e83611a39565b91507f496e76616c69642073656e6465720000000000000000000000000000000000006000830152602082019050919050565b60006117a7601583611a39565b91507f546f6b656e207472616e73666572206661696c656400000000000000000000006000830152602082019050919050565b60006117e7601183611a39565b91507f496e76616c696420726563697069656e740000000000000000000000000000006000830152602082019050919050565b606082016000820151611830600085018261185c565b506020820151611843602085018261185c565b506040820151611856604085018261185c565b50505050565b61186581611b9d565b82525050565b61187481611b9d565b82525050565b61188381611ba7565b82525050565b600060208201905061189e6000830184611612565b92915050565b600060208201905081810360008301526118be8184611621565b905092915050565b600060208201905081810360008301526118df8161165a565b9050919050565b600060208201905081810360008301526118ff8161169a565b9050919050565b6000602082019050818103600083015261191f816116da565b9050919050565b6000602082019050818103600083015261193f8161171a565b9050919050565b6000602082019050818103600083015261195f8161175a565b9050919050565b6000602082019050818103600083015261197f8161179a565b9050919050565b6000602082019050818103600083015261199f816117da565b9050919050565b60006060820190506119bb600083018461181a565b92915050565b60006020820190506119d6600083018461186b565b92915050565b60006060820190506119f1600083018661186b565b6119fe602083018561186b565b611a0b604083018461186b565b949350505050565b6000602082019050611a28600083018461187a565b92915050565b600081519050919050565b600082825260208201905092915050565b6000611a5582611b9d565b9150611a6083611b9d565b9250827fffffffffffffffffffffffffffffffffffffffffffffffffffffffffffffffff03821115611a9557611a94611c62565b5b828201905092915050565b6000611aab82611b9d565b9150611ab683611b9d565b925082611ac657611ac5611c91565b5b828204905092915050565b6000611adc82611b9d565b9150611ae783611b9d565b9250817fffffffffffffffffffffffffffffffffffffffffffffffffffffffffffffffff0483118215151615611b2057611b1f611c62565b5b828202905092915050565b6000611b3682611b9d565b9150611b4183611b9d565b925082821015611b5457611b53611c62565b5b828203905092915050565b6000611b6a82611b7d565b9050919050565b60008115159050919050565b600073ffffffffffffffffffffffffffffffffffffffff82169050919050565b6000819050919050565b600060ff82169050919050565b60005b83811015611bd2578082015181840152602081019050611bb7565b83811115611be1576000848401525b50505050565b60006002820490506001821680611bff57607f821691505b60208210811415611c1357611c12611cc0565b5b50919050565b6000611c2482611b9d565b91507fffffffffffffffffffffffffffffffffffffffffffffffffffffffffffffffff821415611c5757611c56611c62565b5b600182019050919050565b7f4e487b7100000000000000000000000000000000000000000000000000000000600052601160045260246000fd5b7f4e487b7100000000000000000000000000000000000000000000000000000000600052601260045260246000fd5b7f4e487b7100000000000000000000000000000000000000000000000000000000600052602260045260246000fd5b6000601f19601f8301169050919050565b611d0981611b5f565b8114611d1457600080fd5b50565b611d2081611b9d565b8114611d2b57600080fd5b5056fea2646970667358221220f6cb8f674419ede0f89b4fb84af9510470720e347f35ada5571369f7f1196e4f64736f6c63430008000033",
	"linkReferences": {},
	"deployedLinkReferences": {}
}